:020000040000FA
:0400000009EF00F014
:0E00080039828CEC02F03992110072EF02F096
:1002000000312D2D2D2D414243322D444546332DB5
:10021000474849342D4A4B4C352D4D4E4F362D50C5
:1002200051525337545556382D5758595A392A2D4B
:100230002D2D2D30202D2D2D232D2D2D2D01020383
:100240000405060708090A0B0C00E4D081500F0BC7
:100250000F0AD8A406D08B808B928B84010E1C6E63
:10026000120081500F0B0F0AD8B41200245060EC1A
:1002700002F0030E1C6E120081500F0B0F0AD8A45F
:1002800006D08B808B828B94020E1C6E12008150E4
:100290000F0B0F0AD8B41200245060EC02F0E9D71B
:1002A00081500F0B0F0AD8A406D08B908B828B84C1
:1002B000000E1C6E120081500F0B0F0AD8B41200F2
:1002C000245060EC02F0D5D7245025EC02F02950E0
:1002D0002810271004E1640E265CD8A06ED081504F
:1002E0000F0B0F0AD8B469D08250070BFF0A336E88
:1002F000D89033307F0B1B6E81500F0BFF0A336E8B
:10030000D89033307F0B1A6E030E1A18D8B404D06D
:100310001AC035F0366A04D0000E366E020E356E05
:1003200035C01AF0040E1A6004D01AC037F0386ACB
:1003300004D0000E386E030E376E37C01AF01A5014
:10034000030DF3503D0F1B24336E33C0F6FF020E36
:10035000F76E0800F5CF1EF01B50050DF3CF33F0FC
:100360001A500F0DF350010F33241D24346E34C086
:10037000F6FF020EF76E0800F5CF19F01D2A2D0EBC
:100380001918D8A415D0000E1D6E1B50050DF3CF03
:1003900033F01A500F0DF350010F3324346E34C074
:1003A000F6FF020EF76E0800F5CF1FF01D2A02D0EF
:1003B00019C01FF0040E1C6E120081500F0B0F0AA3
:1003C000D8A4120072D781500F0B0F0AD8A41200C4
:1003D000245060EC02F0050E1C6E1200245025EC37
:1003E00002F029502810271004E1640E265CD8A0E2
:1003F0000BD081500F0B0F0AD8A406D08B908B82A4
:100400008B841E681F6854D781500F0B0F0AD8B415
:100410001200D0D71C50336E346A3450000AD8A46E
:1004200012003350000AD8B411D7010AD8B424D727
:10043000030AD8B435D7010AD8B446D7070AD8B4C6
:10044000C2D7010AD8A41200C9D7326EF29E15C0D5
:100450002EF016C02FF017C030F018C031F0F28E19
:100460003250050DF350010FD96EDA6ADECF2AF053
:10047000DECF2BF0DECF2CF0DECF2DF02A502E5C1D
:10048000266E2B502F58276E2C503058286E2D502A
:100490003158296E1200000E266E2650050DF350BD
:1004A000050FD96EDA6A000EDF6E262A030E266467
:1004B000F4D7C10ED56E380ED66EF294F28A1200C1
:1004C000266EF29E2650050DF350010FD96EDA6AA2
:1004D00015C0DEFF16C0DEFF17C0DEFF18C0DEFF4E
:1004E000F28E120000EE01F0250EEE6AE806FDE144
:1004F00039903992000EF86E00017FEF02F0600E25
:10050000D36E9B8CD09EF28CF28E4BEC02F098EC6A
:1005100002F025EC01F0FDD7000ED76E380ED66E36
:10052000F294010E1526000E162217221822120030
:0E053000AB8EAB9C400EAF6EAC8AAB88120057
:020000040020DA
:08000000FFFFFFFFFFFFFFFF00
:020000040030CA
:0E000000FF081F1EFF8185FF03C003E00340C1
:00000001FF
