:020000040000FA
:0400000009EF00F014
:0E0008003D8230EC03F03D92110023EF03F037
:1002000000312D2D2D2D414243322D444546332DB5
:10021000474849342D4A4B4C352D4D4E4F362D50C5
:1002200051525337545556382D5758595A392A2D4B
:100230002D2D2D30202D2D2D232D2D2D2D01020383
:100240000405060708090A0B0C0097EF02F081501D
:100250000F0B0F0AD8A42FEF01F031EF01F038EFA8
:1002600001F08B808B928B84010E1C6EBCEF02F030
:1002700081500F0B0F0AD8B440EF01F042EF01F0AC
:10028000BCEF02F0245001EC03F0030E1C6EBCEF37
:1002900002F081500F0B0F0AD8A451EF01F053EF79
:1002A00001F05AEF01F08B808B828B94020E1C6E52
:1002B000BCEF02F081500F0B0F0AD8B462EF01F0CF
:1002C00064EF01F0BCEF02F0245001EC03F045EFC5
:1002D00001F081500F0B0F0AD8A471EF01F073EFFA
:1002E00001F07AEF01F08B908B828B84000E1C6EF4
:1002F000BCEF02F081500F0B0F0AD8B482EF01F06F
:1003000084EF01F0BCEF02F0245001EC03F045EF64
:1003100001F02450BDEC02F029502810271009E10B
:10032000640E265CD8A097EF01F099EF01F04AEF38
:1003300002F081500F0B0F0AD8B4A1EF01F0A3EF28
:1003400001F04AEF02F08250070B336E346A331C1F
:10035000356E341C366E36343630386E3530376E86
:1003600037507F0B1B6E81500F0B336E346A331C7A
:10037000356E341C366E36343630386E3530376E66
:1003800037507F0B1A6E030E1A18D8B4CAEF01F05B
:10039000CCEF01F0D1EF01F01AC039F03A6AD5EF95
:1003A00001F0000E3A6E020E396E39C01AF0040EDA
:1003B0001A60DDEF01F0DFEF01F0E4EF01F01AC0A9
:1003C0003BF03C6AE8EF01F0000E3C6E030E3B6E22
:1003D0003BC01AF01A50030D3D0E336E020E346E00
:1003E000F3503326F45034221B503326000E3422AF
:1003F00033C0F6FF34C0F7FF0800F5CF1EF01A50E7
:100400000F0D010E336E020E346EF3503326F4508E
:1004100034221B50050DF3503326F45034221D5066
:100420003326000E342233C0F6FF34C0F7FF080035
:10043000F5CF19F01D2A2D0E1918D8A422EF02F0BD
:1004400024EF02F044EF02F0000E1D6E1A500F0D63
:10045000010E336E020E346EF3503326F450342204
:100460001B50050DF3503326F45034221D50332613
:10047000000E342233C0F6FF34C0F7FF0800F5CF7A
:100480001FF01D2A46EF02F019C01FF0040E1C6E6B
:10049000BCEF02F081500F0B0F0AD8A452EF02F00C
:1004A00054EF02F0BCEF02F08B908B828B8476EFDE
:1004B00001F081500F0B0F0AD8A461EF02F063EF37
:1004C00002F0BCEF02F0245001EC03F0050E1C6EAC
:1004D000BCEF02F02450BDEC02F029502810271088
:1004E00009E1640E265CD8A078EF02F07AEF02F002
:1004F0008BEF02F081500F0B0F0AD8A482EF02F0AD
:1005000084EF02F08BEF02F08B908B828B841E685D
:100510001F6876EF01F081500F0B0F0AD8B493EFEC
:1005200002F095EF02F0BCEF02F046EF02F01C5033
:10053000336E346A3450000AD8B4A1EF02F0BCEF35
:1005400002F03350000AD8B427EF01F0010AD8B402
:1005500049EF01F0030AD8B469EF01F0010AD8B4F9
:1005600089EF01F0070AD8B459EF02F0010AD8B4B4
:100570006AEF02F0BCEF02F01200326EF29E15C07C
:100580002EF016C02FF017C030F018C031F0F28EE8
:100590003250050D010EF324D96E000EF420DA6EF0
:1005A000DECF2AF0DECF2BF0DECF2CF0DECF2DF029
:1005B0002A502E5C266E2B502F58276E2C50305808
:1005C000286E2D503158296E1200000E266E2650CE
:1005D000050D050EF324D96E000EF420DA6E000E20
:1005E000DF6E262A030E2664F8EF02F0FAEF02F01F
:1005F000E7EF02F0C10ED56E380ED66EF294F28A95
:100600001200266EF29E2650050D010EF324D96EBF
:10061000000EF420DA6E15C0DEFF16C0DEFF17C034
:10062000DEFF18C0DEFFF28E1200600ED36E9B8CD0
:10063000D09EF28CF28EE5EC02F025EC01F01DEF7D
:1006400003F009EF00F000EE01F0250EEE6AE80677
:10065000FDE13D903D92000EF86E000115EF03F0B4
:10066000000ED76E380ED66EF294010E1526000ECF
:080670001622172218221200C5
:020000040020DA
:08000000FFFFFFFFFFFFFFFF00
:020000040030CA
:0E000000FF081F1EFF8185FF03C003E00340C1
:00000001FF
